:020000041000EA
:1000000000B5324B212058609868022188439860DF
:10001000D860186158612E4B002199600221596106
:100020000121F02299502B49196001219960352056
:1000300000F044F80222904214D00621196600F024
:1000400034F8196E01211966002018661A6600F04E
:100050002CF8196E196E196E052000F02FF8012189
:100060000842F9D1002199601B49196000215960AB
:100070001A491B48016001219960EB211966A021F2
:10008000196600F012F800219960164914480160C1
:100090000121996001BC002800D000471248134993
:1000A000086003C880F30888084703B5996A0420EC
:1000B0000142FBD001200142F8D103BD02B5186610
:1000C0001866FFF7F2FF186E186E02BD00000240BE
:1000D000000000180000070000035F00212200005C
:1000E000F4000018222000A00001001008ED00E03C
:1000F00000000000000000000000000074B24E7A12
:1001000000200420F7010010C3010010C5010010F9
:10011000C1010010C1010010C1010010C101001097
:10012000C1010010C1010010C1010010C701001081
:10013000C1010010C1010010C9010010CB01001065
:10014000CD010010CD010010CD010010CD01001037
:10015000CD010010CD010010CD010010CD01001027
:10016000CD010010CD010010CD010010CD01001017
:10017000CD010010CD010010CD010010CD01001007
:10018000CD010010CD010010CD010010CD010010F7
:10019000CD010010CD010010CD010010CD010010E7
:1001A000CD010010CD010010CD010010CD010010D7
:1001B000CD010010CD010010CD010010CD010010C7
:1001C00000BE00BE00BE00BE00BE00BE00F04BF888
:1001D000103800BEF2EB887174AD001098AD0010BD
:1001E0003402001090A31AE700202149086006C8D5
:1001F00081F3088810471F48006800282FD10DA4FC
:100200000ECC002902D000F012F8F9E71A491B4A77
:10021000002000E001C19142FCD1194988471949E9
:1002200088471949884700BEFDE701C901C29A42C3
:10023000FBD3704798AD0010C0000020CC0C00200C
:10024000A4B900100000042000000420A4B900108C
:1002500000100420001004200000000070470B482C
:1002600002F0FAFE0047EFF30580C0B270470000CD
:1002700008ED00E0000000D0D00C00204C11002060
:10028000CD150010A9040010E1160010575600000B
:1002900006005250ABB3605388A3001006005250C2
:1002A000861C030298A30010060052505422A29DFF
:1002B000A0A3001005005250DE65F468A4B9001038
:1002C000F8B5C04610B5064C2378002B07D1054B76
:1002D000002B02D0044800E000BF0123237010BDB2
:1002E000D00D002000000000C8960010044B10B58F
:1002F000002B03D00349044800E000BF10BDC046F6
:1003000000000000D40D0020C896001000280AD07C
:10031000D0231B0610225A61002909D0D0231B06C6
:1003200008225A617047D0231B0610229A61F3E716
:10033000D0231B0608229A61F4E700280CD0D023B2
:100340001B068022D2005A6100290BD0D0231B0645
:10035000802292005A617047D0231B068022D2006F
:100360009A61F1E7D0231B06802292009A61F2E79E
:1003700000280CD0D0231B06802212015A610029CC
:100380000BD0D0231B068022D2005A617047D023A5
:100390001B06802212019A61F1E7D0231B068022FE
:1003A000D2009A61F2E7000030B583B0164B9B692A
:1003B00020210A001A40194201D003B030BD134B6E
:1003C00000215B5E83420ED06B46D91D0870002A67
:1003D000F3D10D4B9B699B06FBD408780A4B186040
:1003E00001320131F3E76B46D91D0D230B70140068
:1003F000002CE9D1044B9B699B06FBD40D78024B82
:100400001D6001340131F3E7004003403C1100203E
:1004100000B583B003E06B46D879FF2814D11E4B9A
:100420009B6910210A001A40194232D16B46D91D2E
:10043000002AF0D1184B9B69DB06FBD4164B1B68D6
:100440000B7001320131F3E70D280DD07F2814D055
:100450000A2809D0114B1A68114988541A680132C8
:100460001A60FFF7A1FFDAE70C4B1B680C4A00216A
:10047000D1540C4B01221A70D1E7084B1A68084975
:10048000002088541A68013A1A607F30FFF78CFF09
:10049000C5E703B000BDC04600400340100F002078
:1004A000340E00204511002070B503F085FF0320B5
:1004B00000F000F9042000F0FDF8092000F0FAF83F
:1004C0000A2000F0F7F80A2000F0F4F80B2000F002
:1004D000F1F8D02424060823636210266662F933FB
:1004E000FF3363628023DB006362636280231B014E
:1004F00063620F2000F0DEF880231B02636202219A
:100500000F2000F0BFF84A4B1A6801239343494A71
:1005100013600221002000F0B5F80221012000F054
:10052000B1F8454DEA6A324080246401434B2343CD
:100530001A604349142001F08FFA0121142001F0C0
:100540007BFAAE636A6B382313403E4A1443236040
:1005500000210020FFF7DAFE00210020FFF7EDFE6A
:1005600000210020FFF704FF00E030BF364B1B786E
:10057000002BFAD0344B1B78002B03D1324B0022D6
:100580001A70F3E7314A3249324804F0D5FA0128AB
:1005900003D1314B00221A60F0E72C4A2F492D4835
:1005A00004F0CAFA012803D12B4B00221A60E5E7B8
:1005B0002B4A2C49274804F0BFFA012803D1264BC7
:1005C00000221A60DAE7264A2749224804F0B4FAE2
:1005D000012803D1204B00221A60CFE7234A244987
:1005E0001C4804F0A9FA012803D11B4B00221A6011
:1005F000C4E71E4A1F49174804F09EFA012803D198
:10060000154B00221A60B9E71B49124804F094FA0E
:100610000128B3D1194B1A68FF231B0453401B0C4C
:100620001B04174A13600C4B00221A60A6E7C04651
:100630008C0005408C100540004003402C400340D6
:1006400011040010344003404511002048110020DF
:10065000C8960010340E0020100F0020D096001015
:1006600049110020D8960010E09600104A11002091
:10067000E8960010F0960010F896001098000540DB
:100680009810054010B58300084A944663441C68DE
:1006900040226240C02414408022520113431C6057
:1006A000C000034B9C466044416010BD04C0014043
:1006B0000040014010B501238340D022120693620E
:1006C00093610521FFF7DEFF10BD0000EFF31080FE
:1006D00072B6034B1B68002BFBD0BFF35F8F7047D4
:1006E0002C0100D0BFF35F8F024B00221A6080F311
:1006F000108870472C0100D0F8B506000C001500DA
:10070000FFF7E4FFE308F718F15C0722224001231A
:1007100093400B4205D1DBB20B433B70FFF7E2FF86
:10072000F8BD2100280000F0FDFF0000034B1B680E
:1007300002201840431E9841C0B2704700C00640D6
:10074000002307E0054A9A189200BFF35F8F00214B
:10075000116001331F2BF5D97047C04640000034AB
:10076000054A1078431CDBB21370172B02D9130013
:1007700010221A707047C0465802002070B504005D
:100780000D00062001F0E8F8C000290002F0B8FCD6
:10079000C60908D00E4B9E4217D87F23184001305F
:1007A0003500460800E001256562A6622C348020F1
:1007B0008001044300232360062001F0CDF880006F
:1007C000A901891902F09CFC70BD0026014DEBE7E0
:1007D000FEFF0000FFFF0000002909D00A22064B9F
:1007E0009C466044434258414000044BC25270470B
:1007F00080225200F3E7C0460080FCBF3C1100207D
:1008000070B505000C00062001F0A6F8002829D0DC
:10081000164B9D4227D08022D203154B1A60154BF0
:100820001A60154B9B6811009943FAD100212800EA
:10083000FFF7D2FF21002800FFF7A0FF2C002C3487
:10084000E96A60224A406E2111408022520122430F
:1008500011600A4B2B6380239B01234310221A60F3
:100860000323AB6470BD80221204D6E700800340EE
:1008700000E0004000F0004000C000400103000024
:1008800070B505000C00080000F07AFB200000F0B5
:100890004BFC0849200000F08BFBFFF761FF064B83
:1008A0009C466044800068602C75A400034BE550B2
:1008B00070BDC046950B001040000034140F00209E
:1008C00010B5002922D003681B7B99421ED8174B14
:1008D0009C466144090183689C4661440C684968F0
:1008E000002A19D003681B7B9A4215D883680F48E9
:1008F0008446624412019A1810685368020001206D
:100900008B4201D80ED00020C0B210BD084B094A5E
:100910003B21094800F0E8FE054B064A3B2106480A
:1009200000F0E2FEA242EFD8EDE7C046FFFFFF0F66
:1009300040970010389900101097001010B500294A
:100940001ED0037B99421BD84B005B18033B046805
:10095000A4466344002919D0002A1DD0914221D019
:10096000002A25D0047BA24222D8046850008018B7
:10097000033820188170197800291FD11A7010BD12
:10098000104B114A6921114800F0AEFE104B114A7C
:1009900070310E4800F0A8FE0F4B0E4A71210B4833
:1009A00000F0A2FE0D4B0B4A7221084800F09CFE9D
:1009B000044B054A6921054800F096FE41701A7003
:1009C000DDE7C046749700108C99001090970010D6
:1009D000D097001068990010DC970010E89700107D
:1009E00070B506000D001400002914D0002A14D0A0
:1009F000806873689847002806D0220029003000DC
:100A0000FFF79CFF280007E02A0021003000FFF7D5
:100A100095FF200000E0100070BD0800FCE700001A
:100A2000F0B583B00500009201930AAB1C780BABC4
:100A30001F78002C26D003685A7B944207D10123EB
:100A4000002B19D1002C3BD1200003B0F0BD002CAD
:100A50000CD01A7B944209D81A6863001B19033B17
:100A6000D3189B78002BEBD00123E9E73E4B3F4A9C
:100A700069213F4800F038FE3E4B3F4A65213F4820
:100A800000F032FE03689C7B002CDBD012D01A7B76
:100A900094420FD862001219033A19688C466244D6
:100AA00051789973002900D1D97300239370537042
:100AB0001370C7E72C4B2D4A69212D4800F014FE16
:100AC000002C3AD02B681B7B9C4236D82C4BE31869
:100AD0001B01AA6894466344009A1A60019A5A60FE
:100AE000089A9A60099ADA602E68002C2BD030D0D0
:100AF000337B9C422DD863001B19033B326894461C
:100B0000634400229A705A701A70717B2200300080
:100B1000FFF766FF7073844200D095E7287D009A46
:100B2000019B00F08DFA061E01D0002F17D00C9B00
:100B3000002B00D188E71E7086E7124B124A3B213A
:100B40000E4800F0D1FD114B114AA621084800F0D3
:100B5000CBFD054B054A6921054800F0C5FD286815
:100B6000210000F0B7FCE2E7749700108C990010A8
:100B7000909700100098001098990010109700109E
:100B8000FFFFFF0F40970010389900100C970010DE
:100B90007C990010F0B5DE4657464E464546E0B516
:100BA0008BB00990002308938200B24BD6583700CF
:100BB00032E0B14BB14A3D21B14800F095FDB14B57
:100BC000B14A3B21B14800F08FFDB14BB14A8C21B5
:100BD000AE4800F089FDB04BAE4A9021AB4800F022
:100BE00083FDA84BAD4A4021A84800F07DFD2A684E
:100BF0006B68099800F024FA00239A4698467B68AF
:100C0000BFF35F8F00221A6086F310884346002BE3
:100C100051D1002800D126E100F0BEF902000B1EE0
:100C2000C7DB00200021069007917868EFF310865B
:100C300072B601680029FCD0BFF35F8F396888461F
:100C40004C7B002C32D0BAD0097B8C42B7D8944967
:100C500065182D01B9688C46654428686968801A52
:100C600099410029C3DC01D10028C0D100214046B0
:100C700000F026FCA042A8D12A686B680692079370
:100C8000AB689846EB689A464346002BA3D0002CED
:100C9000A7D03B681B7B9C42A3D8631EFA68D35C39
:100CA00008931B02184338610020A8E700239A46E6
:100CB00098460020A3E7089B1B0223439946514610
:100CC0001800C04705000E007A68EFF3108B72B66B
:100CD000136859424B41D9B2002BF9D1BFF35F8F52
:100CE000002E26DB002E52DD3B69002B53D04B45F6
:100CF00072D100F051F902000B1E73DB01001800E5
:100D000052197341984202D804D1914202D901226A
:100D10005242D317002B6BDB002104910131039168
:100D2000029451460191414600913800FFF778FE48
:100D300049E03B69002BD5D04B451CD1069A079B57
:100D400010001900521BB341994202D804D19042BD
:100D500002D901225242D317002B12DB0021049149
:100D600001310391029451460191414600913800AE
:100D7000FFF756FE27E04B4B464A9F21434800F0C1
:100D8000B3FC3D4B3D4A3D213D4800F0ADFC002EFB
:100D900001D1002DA8D13A68002C45D0537B9C424C
:100DA0002CD1012100293FD1D37B002B42D1D47318
:100DB000002C52D03B681B7B9C424ED8FA68013C09
:100DC000135D0133135500233B617A68BFF35F8FD6
:100DD00013608BF310881FE7324B2E4AA2212B4859
:100DE00000F082FC244B254A3D21254800F07CFC84
:100DF000214B224A3D21224800F076FC002C0DD0E8
:100E0000137B9C420AD863001B19033B106884467D
:100E100063449B78002BC5D00121C3E7224B234AB2
:100E20006921234800F060FC224B234AF721204827
:100E300000F05AFC002B0AD0117B8B4207D85900D6
:100E4000CB18033B11688C4663445C70AFE7164BCC
:100E5000164A6921164800F047FC0A4B0F4A402108
:100E60000A4800F041FC0BB0F0BCBB46B246A946B4
:100E7000A046F0BD140F002028980010049900101F
:100E800044980010409700103899001010970010F7
:100E9000809800101C990010989800104499001038
:100EA000FFFFFF0FA4980010749700108C9900109A
:100EB00090970010E09800105899001010B50A4B58
:100EC0005B68002B04D00A21084800F04DF910BDE2
:100ED000054C2300064A1021206800F011FA032176
:100EE0002000FFF7CDFCEEE75C0200202811002077
:100EF000C108001070B5EFF305833F20184010388B
:100F0000EFF3108C72B6194B1B68002BFBD0BFF3AC
:100F10005F8F012319008140154A5163154A1278E9
:100F20001400C440234214D0114B5C6A8300124D5C
:100F30005B599C4206D38300104C1B598A430D49D0
:100F40000A7007E00A4A031D9B0099589950002334
:100F500000E00023BFF35F8F044A002111608CF38F
:100F60001088002B00D0984770BDC046280100D0E3
:100F700000400540471100202C110020240E0020C5
:100F800010B50100024A0348FFF7B6FB10BDC0468A
:100F9000B099001044110020044B5B6A034A906A28
:100FA0001900536A9942F9D17047C0460040054084
:100FB00070B504000D00EFF3108672B61B4B1B6872
:100FC000002BFBD0BFF35F8F002D1CD0200000F062
:100FD0003BFD174B83420BD01900200000F03CFD75
:100FE0000121200000F028FD0123A340114A1360D5
:100FF000A400114BE550BFF35F8F0C4B00221A6029
:1010000086F3108870BDA2000B4B0021D150012245
:10101000A2400A490B7893430B700549200000F069
:1010200045FD0021200000F007FDE4E7280100D085
:10103000F50E001038600540240E002047110020F6
:10104000F0B5DE4600B584B00400150001921E0024
:101050000293FFF7A1FF03958E4202D84ED185423D
:101060004CD9EFF3108B72B6274B1B68002BFBD0CB
:10107000BFF35F8F254A17780125A540EBB23B43AC
:101080001370234B5D63221D92000199D150A20081
:101090002049029850501B6A2B4212D11C4B1B6CEA
:1010A0002B4208D00020BFF35F8F174B00221A603D
:1010B0008BF3108823E0184B184AC121184800F020
:1010C00013FBFFF769FF8E4214D802D1039B8342C2
:1010D00010D80E4B1B78BB420ED00D4B1D625D63CA
:1010E0001F2004400123A3400E4A1360074B1F70CA
:1010F0001E38D8E70020D6E70120D4E7012004B04D
:1011000080BCBB46F0BDC046280100D0471100207E
:10111000004005402C110020D4990010309A001096
:10112000F899001080E200E0EFF3108C72B60B4BE0
:101130001B68002BFBD0BFF35F8F01238340084A5D
:10114000136208490A789A430A70BFF35F8F034B12
:1011500000221A608CF310887047C046280100D026
:101160000040054047110020024B9C466144890025
:10117000016070474000003470B504000D00FFF7B7
:10118000EFFA01002000FFF7EFFFFF2323716571E5
:10119000BFF35F8F70BD10B50021FFF7EDFF10BDED
:1011A00010B5FF21FFF7E8FF10BD000010B50029C2
:1011B0001ED0037B99421BD84B005B18033B04688D
:1011C000A4466344002919D0002A1DD0914221D0A1
:1011D000002A25D0047BA24222D80468500080183F
:1011E000033820188170197800291FD11A7010BD9A
:1011F000104B114A6921114800F076FA104B114A40
:1012000070310E4800F070FA0F4B0E4A71210B48F6
:1012100000F06AFA0D4B0B4A7221084800F064FA9C
:10122000044B054A6921054800F05EFA41701A70C6
:10123000DDE7C04674970010089C001090970010DE
:10124000D0970010F49B0010DC970010E897001076
:1012500070B506000D001400002914D0002A14D027
:10126000806873689847002806D022002900300063
:10127000FFF79CFF280007E02A0021003000FFF75D
:1012800095FF200000E0100070BD0800FCE70000A2
:1012900010B50023437301338373037BC3730123AE
:1012A000027B9A4214D9002B0CD0027B934209D8BE
:1012B0005A00D218033A01688C4662440133DBB20B
:1012C0005370EDE70B4B0C4A69210C4800F00CFA07
:1012D000002A09D0924207D8016853009A18033AAD
:1012E0008A180023537010BD024B034A692103483A
:1012F00000F0FAF974970010089C00109097001005
:1013000010B5017342608360FFF7C2FF10BD00009B
:1013100070B50400081E00D170BD002934D0237BB5
:10132000994231D84B005B18033B226894466344D2
:101330005A78002AF0D02DD0237B9A422AD8530025
:101340009B18033B21688C4663445D7800215970EB
:10135000002825D0237B984222D843001B18033B4A
:1013600021688C4663440021597001002000FFF77A
:101370006FFF060029002000FFF7CAFF02003100BE
:101380002000FFF765FFC7E7084B094A69210948B4
:1013900000F0AAF9054B064A6921064800F0A4F9B5
:1013A000024B034A6921034800F09EF9749700102C
:1013B000089C00109097001070B505000C001600F6
:1013C000002928D02DD0037B99422AD84B005B18E6
:1013D000033B0268944663445A78002A27D19A78DE
:1013E000002A2AD11978FFF793FF0300002E03D0BB
:1013F000EA7B002A27D1EC73002B37D1002C49D08F
:101400002B7B9C4246D82B6861000C19033C1C19AD
:101410000023637070BD224B224A3821224800F01D
:1014200063F9224B224A6921224800F05DF9224BE0
:101430001C4A3A211C4800F057F9204B194A3B211D
:10144000194800F051F9002A0AD0297B8A4207D8AE
:1014500051008A18033A29688C4662445470CAE7DE
:10146000124B134A6921134800F03EF9002B0BD0B0
:101470002A7B934208D843001B18033B2A689446F2
:10148000634400229A70B9E7084B094A6921094868
:1014900000F02AF9054B064A6921064800F024F9B4
:1014A0001C9B0010E09B0010249B00107497001000
:1014B000089C001090970010549B00107C9B00101B
:1014C00070B504000A00457B2900FFF775FF6073C3
:1014D000280070BD70B50400002967D0437B8B42A3
:1014E0000ED0002911D0037B99420ED84B005B1817
:1014F000033B0268D0188378002B0CD1002056E003
:101500000121FFF7DDFF012051E0294B294A692124
:10151000294800F0E9F8002B20D0227B93421DD807
:101520005A00D318033B2268D2182568EB5C8B4223
:101530001AD0002B1BD0227B934218D85A00D31804
:10154000033B2268D21853788B4216D0002BF0D17F
:101550001A4B1B4A67211B4800F0C6F8144B154A6A
:101560006921154800F0C0F84378137007E0104B6C
:10157000104A6921104800F0B7F8437853700023EF
:101580008370437001222000FFF716FF0200617B89
:10159000814205D02000FFF75BFE6073012006E06A
:1015A000094B074A6D21074800F09EF8002070BDE6
:1015B00074970010089C001090970010A09B0010DA
:1015C000C89B0010249B0010A89B001070B5264BF0
:1015D000264A1A60264B274A1A60274B9A68254BE1
:1015E0009343FAD1254C01E008CC9847244B9C4208
:1015F000FAD300F031F91E4B224A1A601E4B9B6849
:10160000DB43DB01FAD1204B40229A675A671A6705
:10161000DA661E4C03E02000FFF7BDFD08341C4BCA
:101620009C4206D26379002BF5D02000FFF7B8FD6D
:10163000F4E7184CA168184DC022280002F07AFD8A
:10164000A560FEF710FE002800D000BEFFF778F876
:1016500000F08EFBFFF732FC104C01E008CC9847FD
:101660000F4B9C42FAD370BD00E00040BFCDFBFEA3
:1016700000F00040FE7F3C0000C00040B80C00209D
:10168000C80C0020FFFFFF0100F00140B00C00205B
:10169000B80C002000ED00E000000020C80C002085
:1016A000CC0C002000BEFDE703000A4A1268002AA5
:1016B00008D0084A1068C318074A9A4206D3054A58
:1016C00013607047034A05491160F2E70120404268
:1016D000F7E7C0460C0F0020000004204C1100204A
:1016E00010B5FFF7DFFF000010B582B00C00190045
:1016F000002A0CD0084B002A0BD001920093230043
:101700000200064802F04CFE0120FFF7CBFF044B1D
:10171000F1E7034AF1E7C046149C0010249C001036
:10172000209C00100FB400B583B0084802F008FEFA
:10173000049B002B07D005A90191180002F00EFEB2
:10174000034802F0FDFD0120FFF7ACFF549C0010A0
:10175000649C0010F8B5DE4657464E464546E0B557
:1017600005000F0092460A9A93424ED31A0E9146F4
:101770001E020A9A00233000494601F003FD80460C
:101780006C006419A4002F4B9C4664446368834238
:1017900000D260602B1FDBB29B46012B3BD9C023DC
:1017A0009B012343802212011A60AB00264A9958FC
:1017B000002905D0506901F0A3FC01300138FDD1AA
:1017C00053465A0123685A40E0231A4080235B01A4
:1017D00023431A605A46012A28D980239B012343B8
:1017E000802212011A6043466360424600233000A3
:1017F000494601F0C7FCAD00134B58510120F0BC25
:10180000BB46B246A946A046F8BD104B104A2D2152
:101810001048FFF769FF012FC1D1C0239B0123436B
:1018200003221A60A368DB07FCD5C9E72168794069
:1018300003220A401A60A2680123BB401342FAD077
:10184000CBE7C04600800040980E0020689C001046
:10185000B89C00107C9C001030B583B00C2000F0C8
:101860001FFBFEF763FF00280DD0002304E0990062
:101870002D4A2E4888500133092BF8D92A4B2C4A7F
:101880005A6203B030BD2B4B00229A6700F010FB68
:10189000294B01221A60274B5B6C012BFBD1274B94
:1018A00003221A60234B9B6B012BFBD10224009473
:1018B0000533234A0121234800F066FA00940523EA
:1018C000214A0121214800F05FFA214B00930022B8
:1018D00002210420FFF73EFF1E4D00952B00002241
:1018E00001210520FFF736FF104C00942300002251
:1018F00000210720FFF72EFF009423000022002183
:101900000820FFF727FF0A4B009323000022002145
:101910000920FFF71FFF00952B0000220021062061
:10192000FFF718FFADE7C046980E0020006CDC0200
:101930001BB70000008000403CB0004030B00040C9
:10194000002F68590080024000389C1C00C00240F3
:10195000001BB700405973078000014BC058704707
:10196000980E0020074B9B68103080001950BFF381
:101970005F8FBFF35F8F044B0021196082F31088E3
:101980007047C04600ED00E0240100D010B5091AF0
:1019900004394808090B05D14005400D044B184394
:1019A00080B210BD034B044A8C210448FFF79CFE13
:1019B00000E0FFFFC89C0010C89E0010D89C0010DB
:1019C00010B5091A04394C08090B08D14905490D0D
:1019D000064A11430180064B2343438010BD054B4B
:1019E000054A94210548FFF77FFEC04600F0FFFF3F
:1019F00000F8FFFFC89C00109C9E0010D89C0010AF
:101A000001238340034A10681840431E9841C0B226
:101A10007047C04600E100E0002904D0034B186085
:101A2000034B18607047034B1860FBE780E200E04F
:101A300000E100E080E100E010B5012383401800E0
:101A4000FFF7EAFF10BD0000024B9B6810308000DA
:101A5000C058704700ED00E070B504000D00EFF3D2
:101A6000108672B60C4B1B68002BFBD0BFF35F8F48
:101A70002000FFF7E9FF094B984201D0A84205D1A9
:101A8000320029002000FFF76DFF70BD044B054AAE
:101A900070210548FFF728FE240100D0CD01001079
:101AA0000C9D0010E49E0010D89C0010F0B5CE46AE
:101AB000474680B583B006000D00EFF3108872B67C
:101AC000574B1B68002BFBD0BFF35F8F554B9A68B9
:101AD00034001034A300D758534B9F4207D0AF4275
:101AE00000D19BE00197514BFB1A2F2B09D942469D
:101AF00039003000FFF736FF03B0C0BCB946B0462E
:101B0000F0BD3000FFF77CFF814600213000FFF779
:101B100093FFBFF35F8FFEF7A6FB002801D084423E
:101B200019D10123019C9C43230040495B1A5B416E
:101B300048495943090D49B20022A368AB4212D06B
:101B40000622A256002A0DDB53009B189B002200A0
:101B5000364CE418F1E72021354B364AFF31364840
:101B6000FFF7C2FD2200AB4251D106256557002D7B
:101B700039DB6B005B199A002C4B9B189A68A260AA
:101B8000DA79E27106229A56A2719B795BB2002B38
:101B900010DABD200002A0806B005B199B00234A75
:101BA000D318264A11789971157049463000FFF70D
:101BB00043FF9CE7201D6B005B199B001B4A9B1891
:101BC0001A1D9B88D90A1C2907D15B055B150233B6
:101BD00059005118FFF7DAFEDDE7194B194A9A212F
:101BE0001548FFF781FD00280CD1002A08D0FF23FB
:101BF0009371154B9380114B1A78A2711970D4E729
:101C0000094FF8E7201D1149FFF7DAFECDE7AA21B9
:101C10000F4B084A49000848FFF766FD024F66E788
:101C2000240100D000ED00E0CD010010840200206E
:101C3000209E0010B49E0010D89C00104611002079
:101C4000089E0010D49E001000BDFFFFBE020020C1
:101C5000449E0010AAAA000010B5032304009C4370
:101C6000064A9446644422681840C000FC3383400E
:101C70009A43130081400B43236010BD00E400E051
:101C800070B50400012606432D4BF31A2F2B28D8DC
:101C9000FEF7E9FA00282BD0EFF3108C72B6294B2F
:101CA0001B68002BFBD0BFF35F8F2300244D5B1B11
:101CB0005B412E4D5D432D0D6DB2234B9B68800023
:101CC0001B58B3421BD00022032A32D853009B1862
:101CD0009B001B49CB189B795BB2AB421FD00132F2
:101CE000F2E77221194B1A4AFF311A48FFF7FCFC40
:101CF000BA21194B164A49001648FFF7F5FC124B5A
:101D00009B68164A1A50164B1A78A2711D70BFF3C1
:101D10005F8F0C4B00221A608CF3108870BD080096
:101D20005300991889004118FF268E710D4A8A8048
:101D3000E9E786210C4B064AFF310648FFF7D4FC41
:101D400084020020240100D000ED00E04C9E001031
:101D5000809E0010D89C0010749E0010CD010010D1
:101D60004611002000BDFFFFA09B0010AAAA0000A2
:101D700010B5002404E080212000FFF76DFF01343E
:101D80001F2CF8D910BD0000F0B5CE4600B50400F8
:101D90000E0091461F000C2001F0B2F9050043012E
:101DA0001B1A9901C91AC90009188901484601F08E
:101DB000A7F90200103A98235B009A4233D87B1EA1
:101DC000062B36D8069B013B062B32D8069B9F423A
:101DD00035D34B461A09AA4237D33F04069B1D034D
:101DE0002F432368002B36DB234B9C4241D08022BB
:101DF0005201224B1A60224B1A60224B9B68110041
:101E00009943FAD12660A060231DC02292011A4393
:101E1000212313602368002BFCDAE760082313609A
:101E200080BCB946F0BD184B184A16211848FFF778
:101E30005BFC184B154A19211548FFF755FC164B4A
:101E4000124A1F211248FFF74FFC144B0F4A222160
:101E50000F48FFF749FC22683F231340B342C3D128
:101E6000A3681B051B0D8342BED1E368002FBBD1C5
:101E7000D6E780229201BCE700C0024000E00040AB
:101E800000F0004000C00040009F0010D09F0010F4
:101E90001C9F0010509F00109C9F0010B49F0010CA
:101EA00080239B000343014AD362704700800540B2
:101EB000064BAA2212011A602F22DA60044B054A4F
:101EC0001A60024B5B68002BFBDA7047004002404F
:101ED0000060024000B0FA009A4200D28854704775
:101EE000704710B5002802D00B684968984710BDAC
:101EF0000100002007E083001B185B00501C0860F5
:101F00001078C01830380A681378303BDBB2092BE0
:101F1000F1D97047F0B5DE4657464E464546E0B526
:101F200083B093461F000C9B9A460D9C0E9B9946CE
:101F30000F9B9B0703D0B8460F00060022E00192DA
:101F4000A34688464E46B9460700B44207D2551C00
:101F50004B4641462020B84701342A00F5E73D00B2
:101F60004F465C46019B9B46B1464646B846370005
:101F70002E0007E0013C551C5346185D43463900CE
:101F8000B0472A00002CF5D135003E0047460F9B94
:101F90009B0707D4100003B0F0BCBB46B246A9466D
:101FA000A046F0BDB0464E46B9462F005D46531BD5
:101FB000B342EFD2541C4B4641462020B847220082
:101FC000F5E7F0B5CE46474680B585B094469846CD
:101FD0000C9D0D9C0EAB1B789946109A119B129E7E
:101FE000B7071CD4002B0CD0F7070AD54F46002F9B
:101FF00002D10C37374204D0013B02E030272F5585
:102000000134944201D21F2CF8D9F70707D59C421E
:1020100005D21F2C03D830272F550134F5E7F706DA
:1020200015D5770505D4002C03D0944224D09C42CA
:1020300022D00F9A102A2BD00F9A102A30D00F9A44
:10204000022A35D01F2C02D830222A5501341F2CE9
:1020500005D84A46002A31D02D222A55013403964C
:1020600002930194009543466246FFF753FF05B083
:10207000C0BCB946B046F0BD621E012C06D00F9F11
:10208000102F01D01400D4E7023CD2E71400D0E7AF
:10209000B206D1D41F2CCFD878222A550134D1E7EB
:1020A000B206CCD51F2CCAD858222A550134C9E70C
:1020B0001F2CC7D860322A550134C3E7720703D5F5
:1020C0002B222A550134CAE73207C8D520222A55C7
:1020D0000134C4E7F0B5DE4657464E464546E0B506
:1020E00093B081468A46089209931CAB10CB1B78AB
:1020F0009B461E9D219B9846002C03D110234246EF
:102100009A4390468023DB0046461E4042461A42D0
:1021100012D0002C22D000260EE03033D9B2771C2A
:102120000AAB99552900200000F0EAFFAC4216D313
:102130001F2F14D83E0004002900200000F0E0FF0B
:10214000CBB2092BE9D94246920605D54121C918DF
:10215000C9B20A39C9B2E2E76121F8E7270043466C
:102160000693209B05931F9B049303955B46029364
:1021700001970AAB0093099B089A51464846FFF71E
:1021800020FF13B0F0BCBB46B246A946A046F0BD46
:10219000F0B5DE4657464E464546E0B595B0089048
:1021A00009910A920B931E9E1F9C20AB1B789B46A5
:1021B000229B9946239D269B9A463300234303D1B5
:1021C000103352469A4392468023DB0057461F4005
:1021D00052461A4219D0330023432DD0002714E071
:1021E0003033DAB27B1C98460CABDA554A462B00EA
:1021F0003000210000F0C6FFA5421FD819D0434689
:102200001F2B1BD8474606000C004A462B00300007
:10221000210000F0B7FFD3B2092BE1D95246920654
:1022200005D54122D218D2B20A3AD2B2DAE76122F7
:10223000F8E7B145E3D901E00023984653460693F9
:10224000259B0593249B04934B4603935B46029383
:10225000434601930CAB00930B9B0A9A099908988B
:10226000FFF7AFFE15B0F0BCBB46B246A946A0468C
:10227000F0BD0000F0B5DE4657464E464546E0B597
:1022800091B083468A460C9298461A9C08941B9DEE
:10229000099522002B002000290001F008FA0028EF
:1022A00000D0E5E001225242D74B2000290001F086
:1022B000F9F9002800D0DBE001225242D34B200084
:1022C000290001F0D9F9002800D0D1E00022002334
:1022D000089D2800099E310001F0CEF9002800D0A9
:1022E000DDE008980999069007918023DB001E9A8B
:1022F0001A400D921E9A1A4201D106231C93069889
:10230000079904000D000A000600024300D1D1E045
:10231000080D4005400DBE4CA44660440A03120B54
:10232000BC4B13431F0001F0D5F9BB4ABB4B01F076
:1023300058F9BB4ABB4B01F02DF904000D000022F7
:10234000B94B3000390001F01CF9B84AB84B01F024
:1023500048F902000B002000290001F01BF901F0F0
:10236000D1F9814601F0B6F904000D00B14AB24B33
:1023700001F037F90022B14B01F00CF901F0C2F97C
:102380000600AF4AAF4B2000290001F02AF90400F3
:102390000D00300001F09EF9AB4AAC4B01F021F981
:1023A00002000B002000290001F0EBF804000D00F2
:1023B00002000B0001F015F90A900B91A44BF318E1
:1023C00000261F0522002B002000290001F0E2F862
:1023D0000E900F9122002B0000208021C90501F0F2
:1023E000D0F804000D0000229A4B0A980B9901F0D6
:1023F000DAF80022984B01F0CDF802000B000A98A1
:102400000B9901F0D0F80022944B01F0C3F80200C0
:102410000B000A980B9901F0C6F802000B0020008F
:10242000290001F0B7F802000B000E980F9901F097
:10243000BAF80022774B01F0ADF832003B0001F012
:10244000D0F806000F0004000D00069A079B01F06B
:1024500029F9002830D001235B429C46E144002248
:102460007D4B3000390001F09EF804000D0023E0A0
:102470001E9B04931D9B03931C9B0293089A099B2C
:102480000092019343460C9A5146584600F0FCF8DE
:1024900011B0F0BCBB46B246A946A046F0BD002331
:1024A000002406930794069580231B069C466644E9
:1024B00007961AE7002399464B466333C62B1ED86E
:1024C00004261E9B1B0526D52B0023430FD0644AF0
:1024D000644B0698079901F0DDF8002879D00022B6
:1024E000614B0698079901F0C7F8002871D01C9B32
:1024F0004B4506DD4A46981A431E1C9303E0052609
:10250000DFE700231C938023DB001E9A1A431E92F0
:102510000026002399461D9B9E4264D29F1B0223E6
:102520001E9A1A400A921E9A134202D0002E00D020
:1025300000274B46002B07D022002B000698079956
:1025400001F031F8069007910022002308980999BC
:1025500001F092F8002848D1444B1E9A134004938E
:1025600003971C9B0293069B079C00930194434690
:102570000C9A5146584600F087F8002E00D187E7A4
:102580001E9B9B063DD54525441C434602005146F3
:102590002800D8474B46DA179B185340052205926E
:1025A000013E0496002203920A3202924A46D00F5C
:1025B000019000934346220051465846FFF78AFD9A
:1025C0000A9B002B00D163E702005F460C9E1D9D15
:1025D00054E01C9B002B9ED00D9B002B9BD01C9B82
:1025E000013B1C9397E7002799E7069C079D220073
:1025F000290080200006844661440B000692079360
:10260000AAE76525C0E7C046FFFFEF7FFFFFEFFFAA
:1026100001FCFFFF0000F03FFB799F501344D33FC4
:10262000B3C8608B288AC63F0000F83F61436F63E0
:10263000A787D23F71A379094F930A400000E03F7A
:102640001655B5BBB16B0240EF39FAFE422EE63F9C
:10265000FF03000000002C40000024400000184050
:102660002D431CEBE2361A3F80842E41FFF7FFFF1B
:10267000541C434651462020B8472200931BAB42CE
:10268000F6D3100004E7C046F0B5DE4657464E4686
:102690004546E0B595B00690079193469946209F30
:1026A0001E9A1F9B1000190001F001F8002831D17B
:1026B00001225242BF4B1E981F9900F0DDFF0028F7
:1026C00037D101225242BC4B1E981F9900F0EAFFFD
:1026D00000283DD10022B94B1E981F9900F0E2FF5F
:1026E000002850D10022B64B1E981F9900F0C4FF5D
:1026F000002848D1002200231E981F9900F0BCFF3B
:10270000002850D100239846229B5B0500D4B6E0F8
:10271000002458E0229B0393219B029303230193FF
:10272000A84B00934B465A4607990698FFF7F2FBD1
:102730000EE1229B0393219B029304230193A24B5E
:1027400000934B465A4607990698FFF7E3FBFFE0D4
:102750000423229A1A4022990B4210D09B4B002A44
:102760000FD00422229903912199029101920093A2
:102770004B465A4607990698FFF7CCFBE8E0944B86
:10278000EDE70322EEE7229B0493219B039302973C
:102790001E9B1F9C009301944B465A46079906982E
:1027A000FFF768FDD4E01E9A1F9B0020002100F077
:1027B000E8FE1E901F9101239846A5E70CAB30223E
:1027C0001A55013F01341F2C01D8092FF6D81E9845
:1027D0001F9900F097FF050000F07CFF02000B003E
:1027E0001E981F9900F0CDFEFA007A4B9B181A68CC
:1027F0005B680A920B9300F0F4FE0890099100F0D8
:10280000A5FF060000F062FF02000B00089809997E
:1028100000F0B7FE0890099100226F4B00F042FFD4
:1028200000282ED00136300000F050FF02000B00CF
:102830000A980B9900F026FF002801D001350026E8
:10284000002F2CD1280000F045FF02000B001E983D
:102850001F9900F096FE06000F0000225E4B00F06C
:102860000BFF002846D100225B4B3000390000F0FE
:1028700019FF00283ED1EB073CD501353AE0062789
:1028800046E70022544B0898099900F0F5FE00280D
:10289000D6D1002E01D0F307D2D50136D0E7AA4613
:1028A0001F2C11D8013F0A21300000F029FC651CC3
:1028B00030310CAB19550A21300000F021FC092EF3
:1028C0000ED906002C00EBE755461F2C0CD87B1EBA
:1028D000002F09D00CAA302111551F000134F4E754
:1028E0002B0055461C00F0E71F2C03D80CAB2E2202
:1028F0001A5501341F2C10D80A21280000F0D8FBEB
:10290000661C30310CAB19550A21280000F0D0FBB1
:10291000051E01D03400EDE734000323229A134052
:10292000012B1CD01F2C06D84346002B32D00CABF9
:102930002D221A550134229B0393219B029301946B
:102940000CAB00934B465A4607990698FFF7E2FAFC
:1029500015B0F0BCBB46B246A946A046F0BD219BCF
:10296000002B13D04346002B02D10C3313420FD05F
:10297000219B013B2193190003E00CAB30221A5537
:1029800001348C42CED21F2CF7D9CBE72199F8E73E
:102990002199F6E7229B5B0704D50CAB2B221A5535
:1029A0000134C8E7229B1B07C5D50CAB20221A5562
:1029B0000134C0E7FFFFEFFFFFFFEF7F65CDCD41A3
:1029C00065CDCDC1E89F0010EC9F0010E09F001086
:1029D000DC9F0010D8A100100000E03FF0B5DE46FB
:1029E00057464E464546E0B593B082468B469046E4
:1029F0001193002900D1EBE200275546119B18786E
:102A0000002800D1E7E2252809D07C1C43463A0083
:102A10005946A847119B013311932700EEE7013374
:102A200011930024119A11780B00203BD8B2102882
:102A300003D88300D048C3589F460B00303BDBB21D
:102A4000092B2CD92A292FD000230A93119B1A78FD
:102A50002E2A39D000239A46119A1378683BD9B2AE
:102A6000122976D88B00C549CB589F4601231C43B9
:102A700001321192D6E702231C4301321192D1E7B1
:102A800004231C4301321192CCE708231C4301327A
:102A90001192C7E710231C4301321192C2E711A81B
:102AA000FFF726FA0A90D1E71C9B1A1D1C921868A2
:102AB000002804DB0A90119B01331193C6E702231F
:102AC0001C4343420A93F6E78022D20014435A1C67
:102AD00011925A781300303BDBB2092B04D92A2A11
:102AE00007D000239A46B7E711A8FFF701FA8246FC
:102AF000B2E71C9B1A1D1C921868002804DB824652
:102B0000119B01331193A7E70020F8E780235B00B6
:102B10002343511C119152786C2A01D01C0018E0FB
:102B2000C0239B001C430131119112E080232343F9
:102B3000511C11915278682A01D01C0009E0C02371
:102B40001C430131119104E080235B001C430132DE
:102B50001192119B18780300253BDAB2532A00D951
:102B60002CE29300864AD3589F4680239B001C4347
:102B700001321192EDE780235B001C430132119278
:102B8000E7E7782809D0582838D06F2838D062284D
:102B900038D010239C430A2600E01026582833D052
:102BA000692803D0642801D00C229443630501D521
:102BB0000122944369282AD0642828D0A30500D58F
:102BC0009FE0E30500D5B8E0630600D4CAE01C9A94
:102BD000111D1C911168FF220A4005940A9B049361
:102BE00053460393029600230193009243463A0012
:102BF00059462800FFF76EFA070027E01026CDE7B8
:102C00000826CBE70226C9E720221443C8E7A3051C
:102C100020D4E30550D4630666D51C9A111D1C917F
:102C20001168FF220A40D317D118594005940A9B16
:102C30000493534603930296D20F019200914346A8
:102C40003A0059462800FFF745FA0700119B013367
:102C50001193D3E61C9BDA1D07218A43110008312A
:102C60001C91116853689C46DB170C930D930C9ACA
:102C70000D9B100048400E90624653400F930E98F3
:102C80000F990C9A0D9B801A99410E900F91089400
:102C90000A9B0793534606930496002305936346C5
:102CA000DA0F02920090019143463A0059462800FB
:102CB000FFF76EFA0700C9E71C9A111D1C911268F4
:102CC000D317D118594005940A9B04935346039394
:102CD0000296D20F0192009143463A0059462800CD
:102CE000FFF7F8F90700B1E7230605D51C9A111D77
:102CF0001C910023D25E96E71C9A111D1C9112684C
:102D000091E71C9BDA1D07218A43110008311C91B1
:102D100008940A9B07935346069304960023059351
:102D20000293136854680093019443463A0059464D
:102D30002800FFF72DFA070088E71C9A111D1C9147
:102D400005940A9B04935346039302960023019330
:102D50001368009343463A0059462800FFF7BAF932
:102D6000070073E723060DD51C9A111D1C911268EC
:102D70001204120C31E7C046F49F001038A0001076
:102D800084A000101C9A111D1C91126825E746288A
:102D90001AD01C9B0733072293431A0008321C9257
:102DA00004940A9A0392524602925C681B6800934C
:102DB000019443463A0059462800FFF765FC070096
:102DC000119B0133119319E620231C43E1E7672887
:102DD00001D0472802D180231B011C43452801D084
:102DE000472801D120231C431C9B07330722934310
:102DF0001A0008321C9204940A9A039252460292D4
:102E00005C681B680093019443463A0059462800C9
:102E1000FFF730FA0700119B01331193EEE502230F
:102E20001A002240924623421FD001241C9B1A1DE7
:102E30001C927A1C9146187843463A005946A84796
:102E40005346002B16D1119B013311934F46D5E504
:102E5000561C434659462020B847230032005C1CCC
:102E60009D42F5D83D001700E0E701233A002F000E
:102E70000A9DF4E74A46A9460A9D06E0571C4346C8
:102E800059462020C84734003A00661CA542F5D8B0
:102E90004D469146D7E71C9B1A1D1C921B6899460C
:102EA0005346002B00D1013B4E4601E00136130092
:102EB0003278002A02D05A1E002BF7D14B46F21A64
:102EC00010928023DB0026001E401C4203D0524596
:102ED00001D95346109302231A0022400B92234239
:102EE00005D03A0037004C46A946554620E03A0046
:102EF000109B5F46B3462E0006E0551C4346390042
:102F00002020B04723002A005C1C0A999942F4D87B
:102F100035005E46BB46109437004C46A9465546E0
:102F200006E01D000134561C43465946C84732008E
:102F30002078002804D0002FF4D06B1E002DF0D193
:102F400017004D460B9B002B03D1119B01331193AE
:102F500054E50A9F109B06E0561C43465946202024
:102F6000A847230032005C1C9F42F5D81700ECE70D
:102F700021231C431C9B1A1D1C921B680093059463
:102F800008230493534603931023029300230193D1
:102F900043463A0059462800FFF79CF80700119B6A
:102FA000013311932AE57C1C43463A0059462520FB
:102FB000A847119B0133119327001FE57C1C434652
:102FC0003A005946A847119B01331193270015E594
:102FD0000A4B9A4610E5AA46474502D343465A1E75
:102FE00000E03A00434659460020D047380013B06D
:102FF000F0BCBB46B246A946A046F0BDE11E00109B
:103000000EB410B585B0010007AC08CC03940122C2
:10301000009452420348FFF7E1FC05B010BC08BC25
:1030200003B01847D91E001000B585B00290039177
:103030000121009313004A4202A90248FFF7CEFC87
:1030400005B000BDE31E001001480421014B1847E4
:10305000D00200207930001010B5010018231B8821
:1030600014221088984710BD10B5010018231B8842
:1030700016221088984710BDF0B5C64600B5070067
:103080000E0000250123984600E00135B5420AD222
:10309000AC003C192068FFF7DFFF20600028F4D166
:1030A00000239846F1E7404680BCB846F0BD0000DA
:1030B000124A936F9B0815D29066D166002905D0FD
:1030C000FFE7FFE7FFE7516F106F704704B58021FE
:1030D0000906C2175140002800D0C84306F0DCFAA8
:1030E000002104BDF0B5146E556E576F166FFFF7D3
:1030F000E3FF1466556657671667F0BD000000D001
:10310000114A936F9B0813D210665166002905D0AF
:10311000FFE7FFE7FFE7516F106F704704B5002826
:1031200001D00020C04306F0B7FA002104BDC0461C
:10313000F0B5146E556E576F166FFFF7E5FF146606
:10314000556657671667F0BD000000D094464E4A9A
:10315000926F9208624601D230E0C046F0B54A4E06
:10316000B56F6D08FCD3346E756E776F366F00F0F7
:1031700025F89446444A14665566576716676246B2
:10318000F0BDC0469446404A926F9208624601D212
:1031900058E0C046F0B53C4EB56F6D08FCD3346EB8
:1031A000756E776F366F00F04DF89446364A1466A8
:1031B0005566576716676246F0BDC046002B24DB94
:1031C00011D000293EDA00B5C943404200D1013197
:1031D00000F038F8C943404200D10131DB4352428C
:1031E00000D1013300BD002AEBD1002801D1002914
:1031F00005D00020C90FC90701D1C043410800B55F
:1032000006F042FA0022002300BD00B500290ADBC7
:10321000DB43524200D1013300F014F8C94340426D
:1032200000D1013100BDC943404200D10131DB432F
:10323000524200D1013300F005F8DB43524200D185
:10324000013300BD002923D1002B18D1002A0CD056
:10325000BC460D4F38667A6600210023FFE7FFE782
:10326000FFE77A6F386F67467047002801D007483C
:10327000010000B506F008FA0022002300BD02009C
:103280000B00002000217047000000D0FFFFFFFF6F
:10329000002B00D0BDE0130C26D1002AE7D080B46B
:1032A000104F39667A66FFE7FFE730B4040C7B6F96
:1032B000396F1B0423433B66FFE7FFE7FFE7C04688
:1032C00084B27B6F3D6F1B0423433B66FFE7FFE740
:1032D000C04600232C042D0C7A6F386F0019694109
:1032E000B0BC7047000000D0F0B594460025140E25
:1032F00001D112020835140F01D112010435940FC7
:1033000001D192000235D40F01D152000135D40B06
:103310000134254F7C66254C3C660E0C93B2FFE7CA
:10332000FFE7FFE73C6F6643360C7703BE46734307
:10333000DF0B5B04C01AB941130C7343DB18C91AC5
:10334000CE086643360CB64493B273431F0F1B017D
:10335000C01AB941130C73431F0B1B05C01AB941A6
:10336000860D8F023E436643360C092D24DB520A3C
:103370007243801A7703460A6643360C16235B1B9A
:10338000DE40DF40BF1964466643821B7046043549
:1033900006330100D940A840C01900D30131A24230
:1033A00006D20023F0BD0000000000D0FFFFFFFFA9
:1033B000121B0130F3D3F1E709277F1BFE4064465F
:1033C000A2B27243801A00D20139220C7243130C4C
:1033D0001204821A99410B0070460435133701001C
:1033E000F940A840801900D30131002B02D1A2423C
:1033F0000AD2F0BD013000D30131121BFAD2013BD9
:10340000F8D1A24200D2F0BD013000D30131121B2D
:10341000F7E7F0B51C0C00D080E00CB400251C0AC6
:1034200004D11B02160E3343120208351C0B04D1C3
:103430001B01160F3343120104359C0B04D19B0072
:10344000960F334392000235DC0B02D192185B4198
:1034500001351C00971864410134464F7C66464C88
:103460003C660E0CFFE7FFE7FFE7C0463C6F664394
:10347000360C7703BE4697B27743C01B00D20139A2
:10348000C01B00D201399FB27743C91BC91B170C5F
:1034900077437E04FF0B801BB941CE086643360C90
:1034A0000C2D33DBB644120B1F053A431B0B97B2AE
:1034B0007743C01B00D201399FB27743C91B170C59
:1034C00077433E043F0C801BB941860D8F023E437B
:1034D000664329277F1BFE400C3D7746AF40BF194E
:1034E00030BCA2B2ABB272437343801A9941220C32
:1034F0007243130C1204801A994102000B00013729
:10350000001BA941F9D2781E0021F0BD0C277F1BBA
:10351000FE4077467F0BAF40FF19E0E700245D1CBB
:1035200007D0144F7D663966FFE7FFE7FFE7FFE747
:103530003C6F95B29EB265436643401BB141150C8A
:103540001E0C6543664336042F0C3E432D04401B7E
:10355000B141994204D202000B0020000021F0BDCD
:1035600001D19042F7D3801A994101349942F2D3A4
:10357000F6E70000000000D0FFFFFFFF4840414099
:10358000484018B41B4B5B68FC46019308BD04DF40
:10359000DF38001018B4174B1B68FC46019308BDB8
:1035A00000DFE93800109446134A926F920809D25E
:1035B000624618B40F4BDB68FC46019308BD0CDF74
:1035C000A13B00100C4AF0B5146E556E576F166F84
:1035D0006246FFF7EEFF084A14665566576716679E
:1035E000F0BD18B4034B9B68FC46019308BD08DF8F
:1035F000453A0010240F0020000000D0FFB55040D5
:103600004240504059404B40594000E0FFB5154FF3
:103610004C00640D03D0BC4204D10C0314D800202C
:10362000090D09055C00640D03D0BC4204D11C03E4
:103630000AD800221B0D1B0501264B4009D44B4024
:1036400003D58B4200D18242FFBD9942FCD190420A
:10365000FFBD0B43DB1803431343F5D0C94349189F
:10366000FFBD0000FF07000000B5FFF7CFFF01D04E
:10367000002000BD012000BD00B5FFF7C7FF80415D
:1036800000BDC04600B5FFF7C1FF01D9002000BD55
:10369000012000BD00B5FFF7B1FF01D9002000BD3A
:1036A000012000BD00B5FFF7A9FF804100BD01204A
:1036B00040054A00121804D85A00121801D80020F8
:1036C000704701207047002070470000002100284B
:1036D00005D17047C1174840401AFAD0C90713B541
:1036E000064B1B6898470CBC441CA2401005120BEB
:1036F0000349091B09051943114310BD241000207B
:103700001F04000010B54C00620D8023D218DB00AE
:10371000D21A5B057E2A10DD9E3A13DACC17090314
:10372000490819435242D140640001341532202A1D
:1037300005DAD0400843604310BD002010BD0846A4
:10374000604310BDC80FC018013810BD18B4044B39
:103750005B6AFC46019308BD24DFCD3D00100000EC
:10376000240F002018B4044BDB6DFC46019308BD08
:103770005CDFD53E00100000240F0020C94211D3A9
:1037800000B549004908002200F018F8002904D4C7
:10379000002240428A41114600BD802109060020D6
:1037A00000BD000018B4044BDB6EFC46019308BD5D
:1037B0006CDFDB3D00100000240F002018B4044B28
:1037C0009B6FFC46019308BD78DFF73D00100000B9
:1037D000240F002018B4044BDB6FFC46019308BD96
:1037E0007CDF613E00100000240F002070B5132321
:1037F0001C78012C0FD0012C0FDC022C02DC1D4A9E
:103800001D4B9A6470BD99001A481B4A88500133B9
:103810001F2BF8D9EFE70023FAE71848FFF724FC3D
:1038200005001748FFF720FC023803789B007F2B28
:1038300019DD80222900104800F07CFC022CDCD12C
:10384000104B1A88B5231B029A4209D10E4B1A88D5
:103850000E4B9A4204D10E4B1A880E4B9A42CCD092
:103860000020FDF75FFF0C4B0C4A30210C48FDF7A0
:103870003BFFC046A5380010240F00205344000031
:103880005346000054380000D83800004946000074
:103890009C3800005946000028A20010C8A2001061
:1038A00088A2001007B56046002800D100BE01883C
:1038B0000A0A0230DF2AFAD1C9B2820804D3028888
:1038C00040880004104300E00068024A5050039012
:1038D00007BD0000240F00200FB403BC0CBCF0B5E2
:1038E0000124E407634000E0F0B50C0DCF0F661E25
:1038F0003605891B640503D3C943404200D3013117
:10390000640D03D0661CF60A07D0E41B00207F007C
:10391000791C89078912803C24031D0DDF0F6E1E60
:1039200036059B1B6D0503D3DB43524200D30133A5
:103930006D0D03D06E1CF60A07D0ED1B00227F0030
:103940007B1C9B079B12803D2D032F1B661B58D4AD
:10395000A446202E46DA20371400BC401D00BD408E
:10396000F24033412A4380185941CB0F05D0C94357
:10397000C043002264425041514162464D0D28D15E
:103980000D0D07D100281FD0241940414941013AAB
:103990000D0DF9D0640006D3013000D30131002CA5
:1039A00001D140084000013A0BD4941CE40A04D130
:1039B00012051144DB071944F0BDD907204B194308
:1039C00000E0D9070020F0BD0029DDD1002CDBD1BB
:1039D000F0BD0132C6074008CD0728434908002E34
:1039E000E1D0D9E73C2E29DA203E40371400BC4014
:1039F00000D00124F24014431A00BB401C43D317EB
:103A0000ACE7AC46202F08DA20360400B4400D00A5
:103A1000B540F84039412843A5E73C2F0CDA203F58
:103A200040360400B44000D00124F84004430800AC
:103A3000B1400C43C117EAE710001900002494E7D5
:103A40000000F07FF0B50C0D661E3605891BE60AF6
:103A50006405640D02D0651CED0A04D0002001212C
:103A60000905803C2403A4461C0D671E3F05DB1B93
:103A7000E70A6405640D02D0651CED0A04D000223B
:103A800001231B05803C24037740644497B484B22F
:103A900096B27443070C7E43150C6F4380B26843A3
:103AA000361802D3012000043F183004350C0019E9
:103AB0007D41844688B29AB250430C0C62431F0C7D
:103AC0007C438EB27E43921902D301263604A41998
:103AD0001604170C3618674101BC81B29AB25143E3
:103AE000040C62431B0C5C4380B25843121802D38F
:103AF0000120000424181004130C401863412D18F1
:103B00005E410020474106BC88B293B258430C0C7A
:103B10006343120C544389B251435B1802D3012111
:103B20000904641819041A0C091862416D185641E9
:103B30000020474118BCF902720D1143F0026A0DD2
:103B40001043ED020A0D03D16D1940414941013B7B
:103B5000124E9B1B7600B3420ED26D0007D301308C
:103B6000002671416646354301D1400840001B05DF
:103B7000C918E4072144F0BD0BDA013306D1013046
:103B800004D101314F0D01D04908F2E7E1070020CF
:103B9000F0BD013631050020EBE70000FF03000017
:103BA000F0B51C0D671E3F05DB1BE70A6405640DBD
:103BB00002D0661CF60A04D0002201231B05803CBB
:103BC0002403D0252D060026F6432E661E096E66B8
:103BD000CE0FF619B44649004F0D02D07E1CF60AEE
:103BE00003D000200021403F3F033E1BB600B444F9
:103BF000013F7F05C91B49082E6F013676089C02DC
:103C0000950D25437543ED137543AD1301356D10C7
:103C1000F603761B0CB4CC02450D2C43A2B2B3B212
:103C20005A43270C7B43350C6F43A4B26C431B19DA
:103C300002D3012424043F191C041D0CA4187D4147
:103C400024196D41009A91B2ACB26143170C7C43C8
:103C50002B0C5F4392B25A43A41802D301221204E0
:103C6000BF182204230C52187B41019C6C431B1982
:103C7000520ED9010A434401A01A81B2B2B2514393
:103C800003145A43360C734387B27743D617D219BD
:103C900000277E4136049B191704160C7F185E41DD
:103CA0007316ED18F301002680337541A90F06D174
:103CB0006400690AE8055B0A184309D22FE0042270
:103CC000944480337541A90AA8059B0A184326D35A
:103CD000404149412404009A019B0D005543641B57
:103CE0004343E41A95B286B27543170C7E43030C26
:103CF0005F4392B25A43B61802D301221204BF188E
:103D00003204330C52197B4152429C41002C02D4A4
:103D10000022013051414008CA071043490802B04F
:103D20006246D7079210084BD218084B9A4203D22A
:103D300012058918C919F0BD0020002A01DC3900DC
:103D4000F0BD01331905F5E7FD030000FE07000093
:103D5000624618CA944600291ADAC01861415B46C7
:103D60003B415C46B4405246FA40224344464D46ED
:103D700062416B41904699462B46B3403D41FC4021
:103D80001C4352465B46A241AB4192469B4670475C
:103D9000C01AA1414B463B414C46B4404246FA4012
:103DA000224354465D4662416B4192469B462B46F8
:103DB000B3403D41FC401C4342464B46A241AB410F
:103DC000904699467047002000217047002200B5B8
:103DD000203200F010F8080000BD002200B500F00D
:103DE0000CF8CA179A4200D100BDD8430121C90777
:103DF000414000BD00220B15E5D410B5944600F0FB
:103E0000A5F81414013400DA0021CB17134C204715
:103E10006244343A0CD40C2A07DA040091409040F2
:103E200052422032D440214310BDD843D94310BD63
:103E3000203207D40C469440524220321141D040E7
:103E4000204310BD0800C917203203D4524220324B
:103E5000104110BD1800190010BD0000113E0010E7
:103E60004A00520D144BD21A13DDFF2A1EDAD20576
:103E7000CB0FDB071A43C300400F0903490A08436D
:103E800010435B0001D301D0013070474308FBD2DF
:103E9000704702D0C80FC00770470A0312130132DF
:103EA000F8D1420F072AF5D1012200E0FF22C80F06
:103EB00000028018C00570478003000000210A003E
:103EC000002104E000210A00C11704E000220023C1
:103ED00006E0C0460022CB1758405940C01A99410D
:103EE00030B5184CA21A002903D1010010D00020CF
:103EF000203A4C1512D104D2013A001849414C0D18
:103F0000FAD3114CA24204D212058918DB07C91852
:103F100030BDD243520D00200021F5E703D4013A11
:103F200000184941FBD50B324405C00A4D05284312
:103F3000C90A640003D0002460416141E1E7E0D395
:103F40004408F8E732040000FE0700000A0DCC0F19
:103F5000531E1B05C91A520503D3C943404200D35F
:103F60000131520D03D0531CDB0A07D0121B002075
:103F70006400611C89078912803A1203014BD21A2E
:103F800070470000FF03000051434343C9188C46AB
:103F9000110C83B24B4310B4040C614392B280B253
:103FA000504362431C041B0C001910BC59411304FC
:103FB000120CC018514161447047000070B51323C2
:103FC0001D782A48FFF750F80400012D11D0012D6B
:103FD00009DDA31E1B789B007F2B40DD8022210082
:103FE000234800F0A7F82348FFF736F8224B186063
:103FF00070BD542201001E4800F09CF81F4B1A8827
:104000001F4B9A421CD1A7239B011A881D4B9A4231
:1040100016D11D4B1A881D4B9A4211D11C4B1A8880
:1040200094239B019A420BD11A4B1A881A4B9A423D
:1040300006D11A4B1A681A4B9A4201D1152307E090
:104040001848FDF76FFB99001748094A885001335B
:104050001F2BF8D9144A064B1A62DA61B7E7134BE3
:10406000134A42211348FDF73FFBC0465346000068
:10407000281000204C33000024100020EE290000FE
:10408000C40F0000C20D0000962B0000C0B5000058
:10409000182B0000CC2A000010B50000FC2C0000FA
:1040A00051ED8764209C0010B9400010DCA2001084
:1040B0004CA3001010A3001007B56046002800D1E3
:1040C00000BE01880A0A0230DF2AFAD1C9B282088A
:1040D00004D3028840880004104300E00068024ACC
:1040E0005050039007BD00002810002010B50400B8
:1040F00000F02CFA002804D00419034B9C4200D88D
:1041000010BD0248FDF70EFB0000042060A3001064
:1041100010B500F025FA10BD01480421014B1847E5
:10412000E002002079300010014B1B6818470000A6
:10413000E0020020014B5B6818470000E00200200D
:10414000F8B507000D001600437C002B02D00024B8
:1041500000200CE003681100280098472DE03B7C0C
:1041600010E0022115483B689847601C0134B442B6
:1041700014DA002CF3DD2B19013B1B780D3B5A425E
:104180005341DBB22A5D0A2AF0D1002BEED1A042C6
:10419000E7DA211A28183B689847E2E7B04203DAC9
:1041A000311A28183B689847002E06DDAD19013DED
:1041B0002B780D3B5A4253413B74F8BDD0A30010FD
:1041C00070B505000368002B16D00C4B1C6805E089
:1041D000290004C92000FFF7B3FFE468002C09D0D0
:1041E0002368002BF9D0064B1B68002BF0D0A342AC
:1041F000F3D1EDE700232B6070BDC046000F002017
:10420000080F002070B505000C000B68802B05D04E
:1042100021684B1C23606418257170BD0800FFF7EE
:10422000CFFFF5E710B582B0D0231B0600241C5742
:1042300001A9074805F038FA002806D1019B9C42E5
:1042400003D0034805F038FA012002B010BDC04683
:10425000B00C002010B5024805F00EFA10BDC046A3
:10426000B00C0020F0B5C64600B582B006000D00C7
:104270001700FFF7D7FF80466B1C02D0184B1C6855
:1042800005E0300000F082FC0500F7E7E468002C50
:1042900018D02368002BF9D0124B1B68002B01D0DB
:1042A000A342F3D12A0031002000FFF749FF002F7D
:1042B000ECD06B46D91D0A230B7001222000FFF7BA
:1042C0003FFFE3E74346002B06D16B1E9D41E8B25A
:1042D00002B080BCB846F0BDFFF7BCFFF5E7C046B2
:1042E000000F0020080F00200C4B1A68130001E09B
:1042F0001A00DB68002B08D08342F9D1002903D1D2
:10430000DB68D3600023C36070470029FCD0002A1B
:1043100001D0D060F8E7014B1860F5E7000F0020EE
:1043200010B5064B1C6801E09847E468002C03D0E8
:104330006368002BF8D1F8E710BDC046000F0020DD
:1043400070B5050000F022FC0400012201002800E5
:10435000FFF788FFFFF7E4FF200070BD70B5A2B043
:1043600004000E00FFF75EFF05008422002101A873
:10437000FFF7DAFE3300220001A90848FEF754FED9
:10438000040001A8FFF71CFFFFF7CAFF002D02D1B0
:10439000200022B070BDFFF75DFFF9E70542001075
:1043A0000FB400B583B004A901C90191FFF7D6FF8E
:1043B00003B008BC04B0184710B500F085F810BD74
:1043C000F0B583B005000E0000240FE06B46D91D48
:1043D0000D230B700020002816D193699B06FCD496
:1043E0000B78136001300131F5E70134B44219DA7A
:1043F0000D4B1A682F5D0D4BD31859424B415B0092
:104400000B495B5EBB42E1D06B46D91D0F700020AB
:104410000028EAD193699B06FCD40B781360013025
:104420000131F5E703B0F0BD401100200080FCBF72
:104430003C110020F0B583B006000F00002004E01E
:104440006B4607331B7823702800B84215DA0E4BF1
:104450001A6893691024210019401C420DD1451C93
:1044600034186B46D81D0029EAD19369DB06FCD4C9
:104470001368037001310130F5E7002801D003B063
:10448000F0BD0338FBE7C0464011002070B51500B1
:104490001C000B4B1860FCF7B3F9002D06DA002C5A
:1044A00009DA01210748FFF71FFF70BD022128002C
:1044B000FCF7E8F8F3E702212000FCF7E3F8F0E767
:1044C00040110020F002002010B5064B1B78064B6F
:1044D0001B78E1210123002249020448FFF7D6FF9F
:1044E00010BDC04690AD001094AD001000400340D8
:1044F00010B5514300F03EF8041E0ED00300083BF7
:104500005A6803239A43043A242A15D80300132A2D
:1045100005D800221A605A609A60200010BD002160
:104520000833016041601B2AF3D98160C160242AED
:1045300006D003001033ECE70021FFF7F5FDECE7B0
:104540000300016118334161E3E7C04610B5034B36
:104550000100186800F00EF810BDC04604030020EA
:1045600010B5034B0100186801F030FF10BDC046C4
:1045700004030020F0B54E464546DE465746E0B5FA
:104580000D000B35060083B0162D22D8102900D956
:10459000B2E000F0AFFA102518230220CB4FFB1831
:1045A0001A005C68083A944200D1B5E003236268BF
:1045B0009A431300E268A168CA6091600122E3187F
:1045C000596830000A435A6000F09CFA2000083015
:1045D00095E007239D4300D58EE0A94200D98BE0EA
:1045E00000F088FAFC235B009D4200D2A5E1680A36
:1045F00000D18BE0042800D978E138239846A80937
:1046000080443930C100B14F79184C680839A14253
:104610000ED003239C4604E0002ACBDAE468A142D2
:1046200006D06246636893435A1B0F2AF4DD404666
:104630003A003C690832944200D178E00323616873
:10464000994389460B00491B0F2900DD79E17A6106
:104650003A610029B2DA80229200914500D30EE13E
:104660005909DA0801238B40D2007968D2190B432B
:1046700091687B60E260A1609460CC60012182104F
:104680009140994259D80B4205D1032290434900E9
:1046900004300B42FBD003239846C3009946B9442B
:1046A000CC4682466346DC68A44507D12AE1002A4D
:1046B00000DB33E1E468A44500D123E142466368AE
:1046C00093435A1B0F2AF2DD0120804661190543EE
:1046D0006560A068E5680837C560A860404610437B
:1046E000F960B9604860CF6030008F60E25000F040
:1046F00009FA2000083002E00C230020336003B0E8
:10470000F0BCBB46B246A946A046F0BD80213F237F
:1047100040209846890076E7DC680230A34200D04A
:1047200044E73A003C690832944200D086E7012110
:104730007B68821091409942A5D90323BC686268C6
:104740009A439146954203D8531B0F2B00DD88E016
:1047500023004B445E4A01935E4B93461B681268EC
:10476000EB18013200D13BE15B4A944663441B0BDA
:104770001B0300933000009900F0CCF90300804641
:10478000013300D1F8E0019B834200D9F2E0534BA2
:1047900019009A460968009B8C46514663440B6099
:1047A00001991A00814200D150E15B461B68013338
:1047B00000D155E1434601995B1A9A1853461A6095
:1047C0000723424641461A400192194200D111E1A5
:1047D00008239846881A424B0099804441449B1A0A
:1047E0005B1A1B051B0D0091300019009B4600F061
:1047F00091F9431C00D14FE14346C01A03005B44CA
:104800000093534652461B6801215B4413604246A5
:104810004046BA60009A0A434260BC4200D123E19C
:104820004A460F2A00D821E107200C3A82436068EB
:104830000140052011436160A118486088600F2A7B
:1048400000D934E1424644465268264908689842F5
:1048500000D20B6024490868984200D38EE00B60B8
:104860008CE0012229001343114365196160300077
:10487000BD606B6000F046F9200008303FE75A0A3F
:10488000042A71D9142A00D9C4E011005C325B31CA
:10489000D20008235B429C46BA18944463469A6847
:1048A00003239846944500D19DE0434651689943BF
:1048B000494502D992689445F7D1D3689C467B68F4
:1048C0006146A260E1608C60D460D7E630070020CA
:1048D000380B0020200E00200F100000F00D0020EB
:1048E00008100000180E00201C0E0020142852D9B9
:1048F000542800D996E06E239846280B80446F30E8
:10490000C10080E608239B46073BDC449B46DA4413
:1049100043465246134200D0C4E64CE00122E3185D
:10492000596830000A435A60E368A268D3609A600D
:1049300000F0E8F820000830E1E62B00E808083332
:104940002CE6012360191D43656078613861C260FF
:1049500082601A004B460A4342603000E15000F08A
:10496000D1F820000830CAE69A09110039323831EE
:10497000D2008EE7BC4260D0BC68626803239A43D1
:10498000531B954202D80F2B00DD6AE7300000F080
:10499000B9F80020B3E65B23984680445C30C10040
:1049A00031E608235B429C46E1444B469B68013854
:1049B0004B4500D098E043460342F2D17B688B43DD
:1049C0007B604900994200D9B7E6002904D1B4E6DA
:1049D000042294464900E2440B42F9D050465CE67A
:1049E00010330093C6E68910023B8B4079680B4375
:1049F0007B6065E7009B300043445B421B051B0D59
:104A000019009B4600F086F8431C00D0F4E6002312
:104A10009B46F6E6542A2BD81A0B11006F326E31E2
:104A2000D20036E7AA235B0098422BD8DD3B98469C
:104A3000E80B80447830C100E5E52C4B009A9A469B
:104A40001B689C46534662441A60AEE6090500D0D6
:104A5000ABE6009ABC684A4401310A436260F4E65E
:104A60005B4642461A60ABE64446EEE641608DE79F
:104A7000AA2149008A4224D8DA0B11007832773112
:104A8000D20006E71A4B984224D87C239846A80CFB
:104A900080447D30C100B6E5009A019B94464246B1
:104AA000083B63449B1A009300239B46A9E6210020
:104AB0003000083101F08AFC5346BC681B6862680C
:104AC000C3E60B498A420BD89A0C11007D327C3127
:104AD000D200DEE6FE217E237F209846890092E503
:104AE000FE227E219200D4E67B686AE7F00D00206A
:104AF0005405000010B5024801F068FD10BDC04625
:104B0000EC0D002010B5024801F062FD10BDC0465A
:104B1000EC0D0020002370B5064D040008002B604A
:104B2000FCF7C2FD431C00D070BD2B68002BFBD0EE
:104B30002360F9E7040F00200EB430B581239CB048
:104B40006A461FAC9B0020CC93820290069000F036
:104B50001DF80B4B6A460A9300230E931393013BF7
:104B6000D382084B039007902A00186802A92300FB
:104B7000019400F039F81CB030BC08BC03B01847F1
:104B8000894B0010040300200020704710B58307F4
:104B90000AD00300032102E001330B4205D01A784A
:104BA000002AF9D1181A10BD030019680C4A0D4CDF
:104BB0008A188A4322420FD15968094A04338A1855
:104BC0008A43224208D15968054A04338A188A4325
:104BD0002242F1D000E001331A78002AFBD1E1E74C
:104BE000FFFEFEFE80808080F0B557464E46DE46D2
:104BF0004546E0B5D24C0E00A54402AF7B620C23C3
:104C0000C95E80239B018246194205D10B43B381C3
:104C1000716ECC4B0B407366137801327B64FA6380
:104C2000002B01D101F046FA00229346FA617A6323
:104C3000BA63BA623A6308210D00C34AD25C1540D8
:104C4000114235D1252B14D1FB6B00241A78002397
:104C500099468F339C468D3B9846FB6B591C13003D
:104C6000253BDBB2552B0ED8B8489B00C3589F4656
:104C7000F9637368002B45DDFB6B3268013B1178EB
:104C80001B78994235D07B6B002B06D07B6B1E685E
:104C9000002E02D03000FFF73BFABD46386BAF2341
:104CA0009B009D44F0BCBB46B246A946A046F0BD61
:104CB00008245D4673680BE03268A3491378CB5C27
:104CC0001C420DD073680132013B013573603260C4
:104CD000002BF1DC3100504603F0C4F90028EBD082
:104CE000AB46FA6B137801327B64FA63002BA2D1D6
:104CF000C9E773680132013B736001239C4632604F
:104D0000E344EEE73100504603F0ACF90028B3D09D
:104D10003B6B002B02D0B3895B06B4D57B6B002BB9
:104D200001D101F0ABFADB881A00002A01D101F0B1
:104D300030F97B6B00241E6800233500B14698468D
:104D400016002B6801341868FFF7E2F9424608CDD7
:104D50001A60B442F5DB01234E465B423B63002EF2
:104D600098D19AE76346234200D08CE74B469B00DC
:104D70004B445B009A1830235B429946FB6B91448D
:104D8000F9635A7869E70423F9633B607368002B81
:104D900000DCEBE0630600D4F2E03B68032B00D1BB
:104DA00024E1042B00D138E3012B00D1F4E2022BE3
:104DB00000D0C9E14B46002B01D1013B99460123AC
:104DC0001D002540234201D100F09FFC0F331A0043
:104DD00022403A62234201D001F0D2F8230601D4E6
:104DE00001F033F97C6A08CCFB62002B00D14AE762
:104DF0008020FFF77BF9804600288FD0FB6A7A6B12
:104E00001860D58893889D4201D300F007FE106892
:104E10007A6B6B1CD380FB6AAD002B5043467B61E1
:104E200020237C62BB613368474A1B78D35C1B0735
:104E300001D500F0D7FF002401F0BCFBA04200D157
:104E400066E740208C218446336849001A78BC44C8
:104E5000614401330A5572683360BB6B013A651CCB
:104E60007260032B01D101F09BF810236246D41825
:104E7000082200212000FFF757F940218C228C46A0
:104E80005200BC442B00414650460094624401F05D
:104E9000A1FBB863421C00D13AE7002801D001F021
:104EA00093F842461060002001F072FB002801D008
:104EB00000F086FFAB4401235B429C46E1443B6A21
:104EC000002B01D001F083F904339C46FB6AE044D7
:104ED000002B01D101F07BF943467A6900259C1A29
:104EE000BA69A310934201D301F0CDF97368002B86
:104EF00001DC01F06FF93368134A1B78D35C1B07A0
:104F000001D500F06FFF4B46002B01D100F06AFF86
:104F10002C0001F04FFBA04293D1F9E60F2323426E
:104F200000D0B0E6FB6BF9635A7896E60F23234274
:104F300000D0A8E643461C43FB6BF9635A788CE625
:104F40003CFDFFFFFFDFFFFF0DA800101CA40010B9
:104F500080239B001C43CD4BF963FB611023BB6294
:104F60000D3B3B607368002B00DD13E731005046BA
:104F700003F078F8002800D0CAE6630600D50CE7F5
:104F80003268C3491378CB5C1B0700D405E73B6844
:104F900098465346A2465C46AB461D0007E00132E8
:104FA0003260BB491378CB5C0821194213D0736877
:104FB0000134013B7360002BF1DC3100280003F069
:104FC00051F8002800D0A3E63268B1491378CB5CD1
:104FD00008211942EBD143463B602B005D46A346B6
:104FE00054469A463B68032B00D0DAE64B46AE2285
:104FF0000021013B5200F962934205D95D3BFF3B22
:10500000FB625E23FF339946D8231B011C43002318
:105010003B601933FF339C46D83B98460022B84486
:10502000C44463464D469046E146BB613268117800
:105030000B002B3BDBB24D2B00D944E195489B0084
:10504000C3589F4601231C4340231C430023F9639C
:105050003B609BE601231C438C4BF963FB610823F7
:10506000BB62053B3B6091E601231C438A4BF9631D
:10507000FB610A23BB62073B3B6087E6882368E746
:1050800001231C430133F9633B607FE64022182370
:10509000BA18D01801F092FC40231C433F3BF86340
:1050A0003B6073E60F23234200D0ECE5FB6B5A789C
:1050B00043466C2A01D100F066FC0123F9631C43CE
:1050C000CBE5634662462340224200D0DBE57A6BA3
:1050D000002A01D100F091FF80231C4322E7022324
:1050E000F9633B6052E6694BF963C1E70F23234242
:1050F00000D0C8E5FB6B5A78682A01D100F042FC69
:105100000423F9631C43A8E5634BF963FB610023A7
:10511000BB6203333B6039E6F963E30600D5E0E5A3
:10512000230701D400F0BCFF59467B6A04CB117001
:105130007B62D6E54B462343994600D0A3E5FB6B43
:1051400010245A78F96388E54B46FB62002B01D1A5
:105150000133FB62E30700D431E310231A0022403D
:105160003A62234201D000F002FF230601D400F08E
:1051700076FF7C6A08CCBB61002B00D183E58020E0
:10518000FEF7B4FF8146002800D1C7E5BB697A6B02
:105190001860D58893889D4201D300F008FD1068FF
:1051A0007A6B6B1CD380BB69AD002B504B463B61C7
:1051B00020237C627B618C23402200255B00BA188F
:1051C000D41801F0F7F9A84200D1A1E533686A1CB0
:1051D00090461A780133625572683360BB6B013AAE
:1051E0007260032B01D100F042FD40221023BA1857
:1051F000D518082200212800FEF796FF434622001A
:1052000049465046009501F0E5F9B863421C00D1CB
:105210007EE5002801D000F03EFD3B6A002B01D165
:105220004A461360C344FB6A013BFB623B6A002BA6
:105230000ED1BB69002B08D04B463A699D1A7A699A
:10524000AB10934201D300F0A9FD04239C46E14436
:1052500073680025002B01DC00F026FDFB6A002BA3
:10526000AFD1BB69002B08D04B463A69991A7A69CD
:105270008B109A4201D900F0C7FF3B6A5A42534152
:105280003A6B94469C4463463B632AE5157E0010C6
:105290000DA8001074A50010117B0010BB6A0A2B2A
:1052A00011DDA84B1C404B46197001239C46E1447C
:1052B0007368013B7360002B67DD01323260013D92
:1052C000002D00D0B2E643464A463B60E30509D5CF
:1052D000BB699A4201D900F0E3FD4A46BB699A4294
:1052E00000D1D0E410231A002240234200D0F3E181
:1052F0004B4650461A70B969BB6A0022FD69A8473F
:10530000A30600D5E1E1230701D500F07FFC630788
:1053100001D400F043FF7B6A04CB10807B62D8E1AC
:10532000BB6A89485B00C35EBB62864B1C40BAE720
:10533000C0238020DB00234080008342C3D1834B05
:105340001C40A023DB001C431023BB62ABE780237F
:105350002342B8D09C43A6E7BB6A7B485B001B5E38
:10536000BB62082B9DDCAEE723059CD5BB6A002BF6
:1053700005D180239B001C43F93BFF3BBB626305C7
:1053800000D4CDE2724B1C408DE73100504602F054
:1053900069FE002893D096E74B46002B01D1013BD4
:1053A0009946E30700D449E210231A0022403A61EB
:1053B000234201D000F07EFD230601D400F059FE07
:1053C0007C6A08CCFB60002B00D15CE48020FEF7F7
:1053D0008DFE3862002800D1A0E4FB683A6A1A60AA
:1053E0007A6BD58893889D4200D230E3594A934224
:1053F00001D900F02FFF08339BB2990098467B6BD0
:105400001B681800FB6201F021F97B6B002800D1BA
:1054100089E4424618609A801AE3504601F0D2F8B7
:105420000368AE223B614B460021013B5200F9600C
:10543000934205D95D3BFF3BFB605E23FF339946FA
:10544000F023DB0023433B600023FB627B60BB60F7
:105450003B627B611933FF339C46D83B9846B84486
:10546000C4446346BB613B684C4698462B00654686
:105470009946326811780B002B3BDBB24E2B03D8D8
:1054800035489B00C3589F463B691B788B4219D116
:10549000802043468000034214D0304803409846A1
:1054A0003B6A7B612970013C013501239C4673688E
:1054B000E344013B7360002B00DCFEE0013232600C
:1054C000002CD6D143463B603B6A2C004D46002B56
:1054D0005ED03A68224B1A403A6059E0FB6A4B446E
:1054E000002BEFD140461F4B18408046DAE7FB6A9D
:1054F000012BE7D10223FB62D4E74B46072BE1D116
:1055000008239946CEE74B46062BDBD10723994665
:10551000C8E7FB6A002B00D0F0E03B6A002B07D104
:10552000E0234046DB001840984201D100F085FDA1
:105530004B46012B01D0042BC4D14B460133DBB2C7
:105540009946AFE77FF4FFFFE8A70010FFFDFFFFDC
:105550007FFAFFFFF6FF0000ACA600107FFDFFFF03
:10556000FFFEFFFF7FFEFFFF4B46002B00D0BCE09D
:105570003B6A002B00D0C6E1E0234046DB00184028
:10558000984201D100F051FD43462C004D463B604E
:10559000FB6A013B012B01D800F04AFE6B1E062B73
:1055A00000D8C9E13B68DB0515D53B685B0501D533
:1055B00000F053FE0123651E5B4229785B44994647
:1055C000652902D0452900D0FCE13200504602F0A6
:1055D00007FDCB462C0010233A6839681A400B426D
:1055E00001D0FFF77EFBC02322708022DB000B403E
:1055F000D200934201D100F04BFCBB68002B00D0DD
:105600001DE300225046B96902F0D8F93B68040056
:105610000D00DB0703D43B689B0700D4FBE27B6AE9
:1056200004CB146055607B623B6B01333B63FFF737
:1056300058FB4B46022B00D044E70323994631E741
:10564000A0234046DB0003408020C000834206D0F8
:105650004346034200D135E73B6A002B94D08020BB
:1056600043468000034204D13B6A78697D601B1A7F
:10567000BB604046D94B18400300C020400018438F
:10568000002380463B620DE780234046034200D161
:1056900018E79843804605E74346DB0500D41DE73D
:1056A0008023414699433B6A884601333B62FB684D
:1056B000002B00D030E1013CF7E63100504602F00B
:1056C000D1FC002800D1FBE6FCE67B6A04CB10602D
:1056D0007B623B6B01333B634A46BB69D51A3B682F
:1056E0009C466544AB44FFF7FCFAFD20033B0342B4
:1056F00000D0E7E60433DBB29946D3E6FB6A022B1F
:1057000000D015E70323FB62CCE6E30601D500F0E9
:10571000EDFC230601D400F04EFC7C6A08CC9846D0
:10572000002B01D1FFF7AFFA2020FEF7DFFCF86273
:10573000002801D1FFF7F2FA424610607A6BD58853
:1057400093889D4200D351E110687A6B6B1CD38023
:105750004346AD002B5020237C623B623368A04956
:105760001A788A5C120701D500F008FCF96A4C46E9
:105770000D007268013A72605A1C32601B784A1C34
:105780000B7043469146002B06D0531B3A6AFB62CE
:10579000934201D300F038FC013C002C00D159E3C6
:1057A0007368002B00DC4EE333688D491A788A5CFD
:1057B0000821114201D000F06DFC4946D9E7E3060B
:1057C00000D57FE3230600D4E4E07B6A20CB984633
:1057D0007D62002D01D1FFF756FAF86AFEF786FCCC
:1057E000041E01D1FFF79AFA7A6B2860D588938856
:1057F0009D4201D300F062FC10687A6B6B1CD38071
:105800007B6AAD002B50210001225046FB6A0096B6
:1058100002F048FC041E01D100F074FDFB6A8342D3
:1058200000D8C7E07D6A01002B681800FB6200F019
:105830000DFF002800D1BDE02860BBE0E30600D5E5
:105840005FE3230601D400F01DFC7B6A20CB984661
:10585000BD61002D01D1FFF716FA2020FEF746FCAE
:10586000041E01D1FFF75AFA7A6B2860D588938815
:105870009D4200D3B3E110687A6B6B1CD380BB6987
:10588000AD002B5043467B6220231800182294461B
:1058900028329046B844C444624661463368FA628E
:1058A0001A788A5C002A01D1FFF7EDF95A467A612D
:1058B000BA69A046934652464D4682463A6215E082
:1058C0004346D31A99461400534500D345E2013D9F
:1058D000002D00D1B0E27368002B00DC16E23368C3
:1058E000F96A1A788A5C002A00D1A5E27268013A46
:1058F00072605A1C32601B78621C23705B46002B5E
:10590000DED11400E3E743463B603A68354B2C0098
:105910001A404D463A603BE6FB68013BFB60C4E53C
:10592000314B1C40FB6A002B02D0013BFB6201356E
:1059300001239C46E044BBE4022D01D800F0BEFCEC
:10594000032D00D12EE63B68984633002E00994681
:105950002500013C4A465046217802F041FBA3193C
:105960005B1BDBB2032BF4D82C0035004346043D0F
:10597000EDB23B60EB43E4185B46013B5B1B4E46DC
:105980009B460FE608231C43FB6B9A780233FB63AC
:10599000FFF763F97D6A012229685046FB6A009689
:1059A00002F080FB041E01D1FFF7B2F904239C46EC
:1059B0006544A8463B6BA34401333B6343467B628B
:1059C000FFF78FF93200504602F00AFB02235B42D8
:1059D000A51E5B4499462978F7E5C0467FF8FFFF8E
:1059E0000DA80010FFFEFFFF7FFCFFFFE64A934279
:1059F00001D900F02FFC08339BB27B6299007B6BCE
:105A00001B6818003B6200F021FE7B6B002801D16F
:105A1000FFF789F97A6A18609A8096E6DA4A934223
:105A200001D900F017FC08339BB27B6299007B6BB5
:105A30001B681800BB6100F009FE7B6B002801D1D8
:105A4000FFF771F97A6A18609A80FFF7E1F9106838
:105A50007A6B6B1CD380FB68AD002B503B6A7C6279
:105A6000BB6020237B604022002394469846193374
:105A7000FF33BC446344FB625B463B60444600F03A
:105A800099FDA04201D1FFF743F93368621C9046AB
:105A9000F96A1A7801330A5572683360BB6B013AB0
:105AA0007260032B00D1EDE040220823BA18D4180D
:105AB000082200212000FEF737FB3D6A43462900FB
:105AC0005046FA6A009400F085FDB863421C01D18B
:105AD000FFF71EF9002800D0F4E02860B861102319
